{
  "_format": "hh-sol-artifact-1",
  "contractName": "XERC721",
  "sourceName": "contracts/XERC721/des.sol",
  "abi": [
    {
      "inputs": [],
      "stateMutability": "nonpayable",
      "type": "constructor"
    },
    {
      "anonymous": false,
      "inputs": [
        {
          "indexed": true,
          "internalType": "address",
          "name": "owner",
          "type": "address"
        },
        {
          "indexed": true,
          "internalType": "address",
          "name": "approved",
          "type": "address"
        },
        {
          "indexed": true,
          "internalType": "uint256",
          "name": "tokenId",
          "type": "uint256"
        }
      ],
      "name": "Approval",
      "type": "event"
    },
    {
      "anonymous": false,
      "inputs": [
        {
          "indexed": true,
          "internalType": "address",
          "name": "owner",
          "type": "address"
        },
        {
          "indexed": true,
          "internalType": "address",
          "name": "operator",
          "type": "address"
        },
        {
          "indexed": false,
          "internalType": "bool",
          "name": "approved",
          "type": "bool"
        }
      ],
      "name": "ApprovalForAll",
      "type": "event"
    },
    {
      "anonymous": false,
      "inputs": [
        {
          "indexed": true,
          "internalType": "address",
          "name": "from",
          "type": "address"
        },
        {
          "indexed": true,
          "internalType": "address",
          "name": "to",
          "type": "address"
        },
        {
          "indexed": true,
          "internalType": "uint256",
          "name": "tokenId",
          "type": "uint256"
        }
      ],
      "name": "Transfer",
      "type": "event"
    },
    {
      "inputs": [],
      "name": "ChainName",
      "outputs": [
        {
          "internalType": "string",
          "name": "",
          "type": "string"
        }
      ],
      "stateMutability": "view",
      "type": "function"
    },
    {
      "inputs": [
        {
          "internalType": "address",
          "name": "to",
          "type": "address"
        },
        {
          "internalType": "uint256",
          "name": "tokenId",
          "type": "uint256"
        }
      ],
      "name": "approve",
      "outputs": [],
      "stateMutability": "nonpayable",
      "type": "function"
    },
    {
      "inputs": [
        {
          "internalType": "address",
          "name": "owner",
          "type": "address"
        }
      ],
      "name": "balanceOf",
      "outputs": [
        {
          "internalType": "uint256",
          "name": "",
          "type": "uint256"
        }
      ],
      "stateMutability": "view",
      "type": "function"
    },
    {
      "inputs": [
        {
          "internalType": "string",
          "name": "",
          "type": "string"
        }
      ],
      "name": "gateway",
      "outputs": [
        {
          "internalType": "address",
          "name": "",
          "type": "address"
        }
      ],
      "stateMutability": "view",
      "type": "function"
    },
    {
      "inputs": [],
      "name": "gatewayContract",
      "outputs": [
        {
          "internalType": "contract IGateway",
          "name": "",
          "type": "address"
        }
      ],
      "stateMutability": "view",
      "type": "function"
    },
    {
      "inputs": [
        {
          "internalType": "uint256",
          "name": "tokenId",
          "type": "uint256"
        }
      ],
      "name": "getApproved",
      "outputs": [
        {
          "internalType": "address",
          "name": "",
          "type": "address"
        }
      ],
      "stateMutability": "view",
      "type": "function"
    },
    {
      "inputs": [
        {
          "internalType": "uint64",
          "name": "destGasLimit",
          "type": "uint64"
        },
        {
          "internalType": "uint64",
          "name": "destGasPrice",
          "type": "uint64"
        },
        {
          "internalType": "uint64",
          "name": "ackGasLimit",
          "type": "uint64"
        },
        {
          "internalType": "uint64",
          "name": "ackGasPrice",
          "type": "uint64"
        },
        {
          "internalType": "uint128",
          "name": "relayerFees",
          "type": "uint128"
        },
        {
          "internalType": "uint8",
          "name": "ackType",
          "type": "uint8"
        },
        {
          "internalType": "bool",
          "name": "isReadCall",
          "type": "bool"
        },
        {
          "internalType": "string",
          "name": "asmAddress",
          "type": "string"
        }
      ],
      "name": "getRequestMetadata",
      "outputs": [
        {
          "internalType": "bytes",
          "name": "",
          "type": "bytes"
        }
      ],
      "stateMutability": "pure",
      "type": "function"
    },
    {
      "inputs": [
        {
          "internalType": "uint256",
          "name": "requestIdentifier",
          "type": "uint256"
        },
        {
          "internalType": "bool",
          "name": "execFlag",
          "type": "bool"
        },
        {
          "internalType": "bytes",
          "name": "execData",
          "type": "bytes"
        }
      ],
      "name": "iAck",
      "outputs": [],
      "stateMutability": "nonpayable",
      "type": "function"
    },
    {
      "inputs": [
        {
          "internalType": "string",
          "name": "requestSender",
          "type": "string"
        },
        {
          "internalType": "bytes",
          "name": "packet",
          "type": "bytes"
        },
        {
          "internalType": "string",
          "name": "srcChainId",
          "type": "string"
        }
      ],
      "name": "iReceive",
      "outputs": [
        {
          "internalType": "bytes",
          "name": "",
          "type": "bytes"
        }
      ],
      "stateMutability": "nonpayable",
      "type": "function"
    },
    {
      "inputs": [
        {
          "internalType": "address",
          "name": "owner",
          "type": "address"
        },
        {
          "internalType": "address",
          "name": "operator",
          "type": "address"
        }
      ],
      "name": "isApprovedForAll",
      "outputs": [
        {
          "internalType": "bool",
          "name": "",
          "type": "bool"
        }
      ],
      "stateMutability": "view",
      "type": "function"
    },
    {
      "inputs": [
        {
          "internalType": "address",
          "name": "to",
          "type": "address"
        },
        {
          "internalType": "uint256",
          "name": "tokenId",
          "type": "uint256"
        },
        {
          "internalType": "string",
          "name": "uri",
          "type": "string"
        }
      ],
      "name": "mint",
      "outputs": [],
      "stateMutability": "nonpayable",
      "type": "function"
    },
    {
      "inputs": [],
      "name": "name",
      "outputs": [
        {
          "internalType": "string",
          "name": "",
          "type": "string"
        }
      ],
      "stateMutability": "view",
      "type": "function"
    },
    {
      "inputs": [
        {
          "internalType": "string",
          "name": "",
          "type": "string"
        }
      ],
      "name": "name",
      "outputs": [
        {
          "internalType": "string",
          "name": "",
          "type": "string"
        }
      ],
      "stateMutability": "view",
      "type": "function"
    },
    {
      "inputs": [
        {
          "internalType": "string",
          "name": "",
          "type": "string"
        }
      ],
      "name": "ourContractOnChains",
      "outputs": [
        {
          "internalType": "string",
          "name": "",
          "type": "string"
        }
      ],
      "stateMutability": "view",
      "type": "function"
    },
    {
      "inputs": [],
      "name": "owner",
      "outputs": [
        {
          "internalType": "address",
          "name": "",
          "type": "address"
        }
      ],
      "stateMutability": "view",
      "type": "function"
    },
    {
      "inputs": [
        {
          "internalType": "uint256",
          "name": "tokenId",
          "type": "uint256"
        }
      ],
      "name": "ownerOf",
      "outputs": [
        {
          "internalType": "address",
          "name": "",
          "type": "address"
        }
      ],
      "stateMutability": "view",
      "type": "function"
    },
    {
      "inputs": [
        {
          "internalType": "address",
          "name": "to",
          "type": "address"
        },
        {
          "internalType": "uint256",
          "name": "tokenId",
          "type": "uint256"
        },
        {
          "internalType": "string",
          "name": "uri",
          "type": "string"
        }
      ],
      "name": "safeMint",
      "outputs": [],
      "stateMutability": "nonpayable",
      "type": "function"
    },
    {
      "inputs": [
        {
          "internalType": "address",
          "name": "from",
          "type": "address"
        },
        {
          "internalType": "address",
          "name": "to",
          "type": "address"
        },
        {
          "internalType": "uint256",
          "name": "tokenId",
          "type": "uint256"
        }
      ],
      "name": "safeTransferFrom",
      "outputs": [],
      "stateMutability": "nonpayable",
      "type": "function"
    },
    {
      "inputs": [
        {
          "internalType": "address",
          "name": "from",
          "type": "address"
        },
        {
          "internalType": "address",
          "name": "to",
          "type": "address"
        },
        {
          "internalType": "uint256",
          "name": "tokenId",
          "type": "uint256"
        },
        {
          "internalType": "bytes",
          "name": "data",
          "type": "bytes"
        }
      ],
      "name": "safeTransferFrom",
      "outputs": [],
      "stateMutability": "nonpayable",
      "type": "function"
    },
    {
      "inputs": [
        {
          "internalType": "address",
          "name": "operator",
          "type": "address"
        },
        {
          "internalType": "bool",
          "name": "approved",
          "type": "bool"
        }
      ],
      "name": "setApprovalForAll",
      "outputs": [],
      "stateMutability": "nonpayable",
      "type": "function"
    },
    {
      "inputs": [
        {
          "internalType": "string",
          "name": "chainName",
          "type": "string"
        },
        {
          "internalType": "string",
          "name": "contractAddress",
          "type": "string"
        }
      ],
      "name": "setContractOnChain",
      "outputs": [],
      "stateMutability": "nonpayable",
      "type": "function"
    },
    {
      "inputs": [
        {
          "internalType": "string",
          "name": "feePayerAddress",
          "type": "string"
        }
      ],
      "name": "setDappMetadata",
      "outputs": [],
      "stateMutability": "nonpayable",
      "type": "function"
    },
    {
      "inputs": [
        {
          "internalType": "address",
          "name": "gateway",
          "type": "address"
        }
      ],
      "name": "setGateway",
      "outputs": [],
      "stateMutability": "nonpayable",
      "type": "function"
    },
    {
      "inputs": [
        {
          "internalType": "bytes4",
          "name": "interfaceId",
          "type": "bytes4"
        }
      ],
      "name": "supportsInterface",
      "outputs": [
        {
          "internalType": "bool",
          "name": "",
          "type": "bool"
        }
      ],
      "stateMutability": "view",
      "type": "function"
    },
    {
      "inputs": [],
      "name": "symbol",
      "outputs": [
        {
          "internalType": "string",
          "name": "",
          "type": "string"
        }
      ],
      "stateMutability": "view",
      "type": "function"
    },
    {
      "inputs": [
        {
          "internalType": "address",
          "name": "a",
          "type": "address"
        }
      ],
      "name": "toBytes",
      "outputs": [
        {
          "internalType": "bytes",
          "name": "b",
          "type": "bytes"
        }
      ],
      "stateMutability": "pure",
      "type": "function"
    },
    {
      "inputs": [
        {
          "internalType": "uint256",
          "name": "index",
          "type": "uint256"
        }
      ],
      "name": "tokenByIndex",
      "outputs": [
        {
          "internalType": "uint256",
          "name": "",
          "type": "uint256"
        }
      ],
      "stateMutability": "view",
      "type": "function"
    },
    {
      "inputs": [
        {
          "internalType": "address",
          "name": "owner",
          "type": "address"
        },
        {
          "internalType": "uint256",
          "name": "index",
          "type": "uint256"
        }
      ],
      "name": "tokenOfOwnerByIndex",
      "outputs": [
        {
          "internalType": "uint256",
          "name": "",
          "type": "uint256"
        }
      ],
      "stateMutability": "view",
      "type": "function"
    },
    {
      "inputs": [
        {
          "internalType": "uint256",
          "name": "tokenId",
          "type": "uint256"
        }
      ],
      "name": "tokenURI",
      "outputs": [
        {
          "internalType": "string",
          "name": "",
          "type": "string"
        }
      ],
      "stateMutability": "view",
      "type": "function"
    },
    {
      "inputs": [],
      "name": "totalSupply",
      "outputs": [
        {
          "internalType": "uint256",
          "name": "",
          "type": "uint256"
        }
      ],
      "stateMutability": "view",
      "type": "function"
    },
    {
      "inputs": [
        {
          "internalType": "string",
          "name": "chainName",
          "type": "string"
        },
        {
          "components": [
            {
              "internalType": "uint256",
              "name": "nftId",
              "type": "uint256"
            },
            {
              "internalType": "string",
              "name": "uri",
              "type": "string"
            }
          ],
          "internalType": "struct XERC721.TransferTemp",
          "name": "transferTemp",
          "type": "tuple"
        }
      ],
      "name": "transferCrossChain",
      "outputs": [],
      "stateMutability": "payable",
      "type": "function"
    },
    {
      "inputs": [
        {
          "internalType": "address",
          "name": "from",
          "type": "address"
        },
        {
          "internalType": "address",
          "name": "to",
          "type": "address"
        },
        {
          "internalType": "uint256",
          "name": "tokenId",
          "type": "uint256"
        }
      ],
      "name": "transferFrom",
      "outputs": [],
      "stateMutability": "nonpayable",
      "type": "function"
    }
  ],
  "bytecode": "0x60806040523480156200001157600080fd5b506040805180820182526005815264135e53919560da1b60208083019182528351808501909452600384526213919560ea1b9084015281519192916200005a9160009162000cd8565b5080516200007090600190602084019062000cd8565b50505060405180604001604052806005815260200164383030303160d81b815250600e604051620000ad90656d756d62616960d01b815260060190565b90815260200160405180910390209080519060200190620000d092919062000cd8565b506040805180820182526005815264343331313360d81b6020820190815282516366756a6960e01b8152600e600482015292519283900360240190922090516200011b929062000cd8565b50604080518082018252600d81526c726f757465725f393630312d3160981b602082019081528251691c9bdd5d195c95195cdd60b21b8152600e600a820152925192839003602a01909220905162000174929062000cd8565b507394caa85bc578c05b22bdb00e6ae1a34878f047f76010604051620001a690656d756d62616960d01b815260060190565b90815260408051918290036020908101832080546001600160a01b03959095166001600160a01b03199586161790556366756a6960e01b835260106004840152815192839003602401832080547394caa85bc578c05b22bdb00e6ae1a34878f047f795169490941790935581810190526006808252656d756d62616960d01b919092019081526200023b91600c919062000cd8565b50600060106040516200025a90656d756d62616960d01b815260060190565b90815260408051918290036020908101832054600d80546001600160a01b03199081166001600160a01b03909316928317909155600b80549091163317905560808401909252604180845291935062004d6e90830139600f600e604051620002d290691c9bdd5d195c95195cdd60b21b8152600a0190565b908152604051908190036020018120620002ec9162000dbb565b908152602001604051809103902090805190602001906200030f92919062000cd8565b50600d5460405163778ae5ed60e11b815260206004820152602a60248201527f30783835393366656337666662643335333862393134373635323837643831356044820152690c4c9959998d0c4d4e0d60b21b60648201526001600160a01b039091169063ef15cbda90608401602060405180830381600087803b1580156200039757600080fd5b505af1158015620003ac573d6000803e3d6000fd5b505050506040513d601f19601f82011682018060405250810190620003d2919062000e5f565b50620003f473a2496575dea56a77e26597e989611e0c04c911e460016200042d565b620004266001604051806040016040528060078152602001667465737455726960c81b8152506200045360201b60201c565b5062000f9e565b6200044f828260405180602001604052806000815250620004fa60201b60201c565b5050565b6000828152600260205260409020546001600160a01b0316620004d45760405162461bcd60e51b815260206004820152602e60248201527f45524337323155524953746f726167653a2055524920736574206f66206e6f6e60448201526d32bc34b9ba32b73a103a37b5b2b760911b60648201526084015b60405180910390fd5b60008281526006602090815260409091208251620004f59284019062000cd8565b505050565b6200050683836200056d565b6200051560008484846200070e565b620004f55760405162461bcd60e51b8152602060048201526032602482015260008051602062004d4e83398151915260448201527131b2b4bb32b91034b6b83632b6b2b73a32b960711b6064820152608401620004cb565b6001600160a01b038216620005c55760405162461bcd60e51b815260206004820181905260248201527f4552433732313a206d696e7420746f20746865207a65726f20616464726573736044820152606401620004cb565b6000818152600260205260409020546001600160a01b0316156200062c5760405162461bcd60e51b815260206004820152601c60248201527f4552433732313a20746f6b656e20616c7265616479206d696e746564000000006044820152606401620004cb565b6200063c60008383600162000877565b6000818152600260205260409020546001600160a01b031615620006a35760405162461bcd60e51b815260206004820152601c60248201527f4552433732313a20746f6b656e20616c7265616479206d696e746564000000006044820152606401620004cb565b6001600160a01b038216600081815260036020908152604080832080546001019055848352600290915280822080546001600160a01b0319168417905551839291907fddf252ad1be2c89b69c2b068fc378daa952ba7f163c4a11628f55a4df523b3ef908290a45050565b60006200072f846001600160a01b03166200089660201b620018e11760201c565b156200086b57604051630a85bd0160e11b81526001600160a01b0385169063150b7a02906200076990339089908890889060040162000e79565b602060405180830381600087803b1580156200078457600080fd5b505af1925050508015620007b7575060408051601f3d908101601f19168201909252620007b49181019062000ef4565b60015b62000850573d808015620007e8576040519150601f19603f3d011682016040523d82523d6000602084013e620007ed565b606091505b508051620008485760405162461bcd60e51b8152602060048201526032602482015260008051602062004d4e83398151915260448201527131b2b4bb32b91034b6b83632b6b2b73a32b960711b6064820152608401620004cb565b805181602001fd5b6001600160e01b031916630a85bd0160e11b1490506200086f565b5060015b949350505050565b6200089084848484620008a560201b620018fd1760201c565b50505050565b6001600160a01b03163b151590565b620008be8484848462000a0960201b62001aa61760201c565b6001811115620009375760405162461bcd60e51b815260206004820152603560248201527f455243373231456e756d657261626c653a20636f6e736563757469766520747260448201527f616e7366657273206e6f7420737570706f7274656400000000000000000000006064820152608401620004cb565b816001600160a01b03851662000996576200099081600980546000838152600a60205260408120829055600182018355919091527f6e1540171b6c0c960b71a7020d9f60077f6af931a8bbf590da0223dacf75c7af0155565b620009bc565b836001600160a01b0316856001600160a01b031614620009bc57620009bc858262000a98565b6001600160a01b038416620009dc57620009d68162000b45565b62000a02565b846001600160a01b0316846001600160a01b03161462000a025762000a02848262000bff565b5050505050565b600181111562000890576001600160a01b0384161562000a53576001600160a01b0384166000908152600360205260408120805483929062000a4d90849062000f3d565b90915550505b6001600160a01b0383161562000890576001600160a01b0383166000908152600360205260408120805483929062000a8d90849062000f57565b909155505050505050565b6000600162000ab28462000c5060201b620012eb1760201c565b62000abe919062000f3d565b60008381526008602052604090205490915080821462000b12576001600160a01b03841660009081526007602090815260408083208584528252808320548484528184208190558352600890915290208190555b5060009182526008602090815260408084208490556001600160a01b039094168352600781528383209183525290812055565b60095460009062000b599060019062000f3d565b6000838152600a60205260408120546009805493945090928490811062000b845762000b8462000f72565b90600052602060002001549050806009838154811062000ba85762000ba862000f72565b6000918252602080832090910192909255828152600a9091526040808220849055858252812055600980548062000be35762000be362000f88565b6001900381819060005260206000200160009055905550505050565b600062000c178362000c5060201b620012eb1760201c565b6001600160a01b039093166000908152600760209081526040808320868452825280832085905593825260089052919091209190915550565b60006001600160a01b03821662000cbc5760405162461bcd60e51b815260206004820152602960248201527f4552433732313a2061646472657373207a65726f206973206e6f7420612076616044820152683634b21037bbb732b960b91b6064820152608401620004cb565b506001600160a01b031660009081526003602052604090205490565b82805462000ce69062000d7e565b90600052602060002090601f01602090048101928262000d0a576000855562000d55565b82601f1062000d2557805160ff191683800117855562000d55565b8280016001018555821562000d55579182015b8281111562000d5557825182559160200191906001019062000d38565b5062000d6392915062000d67565b5090565b5b8082111562000d63576000815560010162000d68565b600181811c9082168062000d9357607f821691505b6020821081141562000db557634e487b7160e01b600052602260045260246000fd5b50919050565b600080835481600182811c91508083168062000dd857607f831692505b602080841082141562000df957634e487b7160e01b86526022600452602486fd5b81801562000e10576001811462000e225762000e51565b60ff1986168952848901965062000e51565b60008a81526020902060005b8681101562000e495781548b82015290850190830162000e2e565b505084890196505b509498975050505050505050565b60006020828403121562000e7257600080fd5b5051919050565b600060018060a01b038087168352602081871681850152856040850152608060608501528451915081608085015260005b8281101562000ec85785810182015185820160a00152810162000eaa565b8281111562000edb57600060a084870101525b5050601f01601f19169190910160a00195945050505050565b60006020828403121562000f0757600080fd5b81516001600160e01b03198116811462000f2057600080fd5b9392505050565b634e487b7160e01b600052601160045260246000fd5b60008282101562000f525762000f5262000f27565b500390565b6000821982111562000f6d5762000f6d62000f27565b500190565b634e487b7160e01b600052603260045260246000fd5b634e487b7160e01b600052603160045260246000fd5b613da08062000fae6000396000f3fe6080604052600436106101e35760003560e01c80636ef9262211610102578063a4e2128811610095578063d3fc986411610064578063d3fc9864146105fa578063e985e9c51461061a578063eb0cde1d14610670578063ef15cbda1461069d57600080fd5b8063a4e212881461057a578063b88d4fde1461059a578063c87b56dd146105ba578063cd279c7c146105da57600080fd5b806390646b4a116100d157806390646b4a146104d757806395d89b41146104f757806397f321f31461050c578063a22cb4651461055a57600080fd5b80636ef926221461045557806370a08231146104755780637a7b7f95146104955780638da5cb5b146104aa57600080fd5b80632ee25c151161017a578063593b79fe11610149578063593b79fe146103a55780635b43bc99146104025780635cd2bd14146104225780636352211e1461043557600080fd5b80632ee25c15146103255780632f745c591461034557806342842e0e146103655780634f6ccce71461038557600080fd5b80630d1ff3a5116101b65780630d1ff3a5146102a657806318160ddd146102c65780631aa6485a146102e557806323b872dd1461030557600080fd5b806301ffc9a7146101e857806306fdde031461021d578063081812fc1461023f578063095ea7b314610284575b600080fd5b3480156101f457600080fd5b506102086102033660046130c8565b6106bd565b60405190151581526020015b60405180910390f35b34801561022957600080fd5b506102326106ce565b604051610214919061315b565b34801561024b57600080fd5b5061025f61025a36600461316e565b610760565b60405173ffffffffffffffffffffffffffffffffffffffff9091168152602001610214565b34801561029057600080fd5b506102a461029f3660046131b0565b610794565b005b3480156102b257600080fd5b506102a46102c1366004613223565b610921565b3480156102d257600080fd5b506009545b604051908152602001610214565b3480156102f157600080fd5b506102326103003660046133d2565b6109f1565b34801561031157600080fd5b506102a461032036600461345a565b610b09565b34801561033157600080fd5b506102326103403660046134be565b610baa565b34801561035157600080fd5b506102d76103603660046131b0565b610c0c565b34801561037157600080fd5b506102a461038036600461345a565b610cdb565b34801561039157600080fd5b506102d76103a036600461316e565b610cf6565b3480156103b157600080fd5b506102326103c0366004613598565b6040805173ffffffffffffffffffffffffffffffffffffffff929092167414000000000000000000000000000000000000000018601483015260348201905290565b34801561040e57600080fd5b5061023261041d3660046135b3565b610db4565b6102a46104303660046135e8565b610e59565b34801561044157600080fd5b5061025f61045036600461316e565b61123b565b34801561046157600080fd5b506102326104703660046135b3565b6112c7565b34801561048157600080fd5b506102d7610490366004613598565b6112eb565b3480156104a157600080fd5b506102326113b9565b3480156104b657600080fd5b50600b5461025f9073ffffffffffffffffffffffffffffffffffffffff1681565b3480156104e357600080fd5b506102a46104f2366004613598565b6113c6565b34801561050357600080fd5b5061023261148e565b34801561051857600080fd5b5061025f6105273660046135b3565b805160208183018101805160108252928201919093012091525473ffffffffffffffffffffffffffffffffffffffff1681565b34801561056657600080fd5b506102a4610575366004613658565b61149d565b34801561058657600080fd5b506102a461059536600461368b565b505050565b3480156105a657600080fd5b506102a46105b53660046136d8565b6114ac565b3480156105c657600080fd5b506102326105d536600461316e565b611554565b3480156105e657600080fd5b506102a46105f5366004613740565b61155f565b34801561060657600080fd5b506102a4610615366004613740565b6116c3565b34801561062657600080fd5b50610208610635366004613781565b73ffffffffffffffffffffffffffffffffffffffff918216600090815260056020908152604080832093909416825291909152205460ff1690565b34801561067c57600080fd5b50600d5461025f9073ffffffffffffffffffffffffffffffffffffffff1681565b3480156106a957600080fd5b506102a46106b83660046135b3565b6117b8565b60006106c882611b62565b92915050565b6060600080546106dd906137ab565b80601f0160208091040260200160405190810160405280929190818152602001828054610709906137ab565b80156107565780601f1061072b57610100808354040283529160200191610756565b820191906000526020600020905b81548152906001019060200180831161073957829003601f168201915b5050505050905090565b600061076b82611bb8565b5060009081526004602052604090205473ffffffffffffffffffffffffffffffffffffffff1690565b600061079f8261123b565b90508073ffffffffffffffffffffffffffffffffffffffff168373ffffffffffffffffffffffffffffffffffffffff161415610862576040517f08c379a000000000000000000000000000000000000000000000000000000000815260206004820152602160248201527f4552433732313a20617070726f76616c20746f2063757272656e74206f776e6560448201527f720000000000000000000000000000000000000000000000000000000000000060648201526084015b60405180910390fd5b3373ffffffffffffffffffffffffffffffffffffffff8216148061088b575061088b8133610635565b610917576040517f08c379a000000000000000000000000000000000000000000000000000000000815260206004820152603d60248201527f4552433732313a20617070726f76652063616c6c6572206973206e6f7420746f60448201527f6b656e206f776e6572206f7220617070726f76656420666f7220616c6c0000006064820152608401610859565b6105958383611c46565b600b5473ffffffffffffffffffffffffffffffffffffffff1633146109a2576040517f08c379a000000000000000000000000000000000000000000000000000000000815260206004820152600a60248201527f6f6e6c79206f776e6572000000000000000000000000000000000000000000006044820152606401610859565b8181600f600e87876040516109b89291906137ff565b9081526040519081900360200181206109d09161389c565b9081526040519081900360200190206109ea929091612f39565b5050505050565b600d5460609073ffffffffffffffffffffffffffffffffffffffff163314610a75576040517f08c379a000000000000000000000000000000000000000000000000000000000815260206004820152600c60248201527f6f6e6c79206761746577617900000000000000000000000000000000000000006044820152606401610859565b8380519060200120600f83604051610a8d91906138a8565b908152604051908190036020018120610aa59161389c565b604051809103902014610ab757600080fd5b600083806020019051810190610acd91906138f4565b9050610af0610ae482602001516020015160601c90565b8251604084015161155f565b50506040805160208101909152600081525b9392505050565b610b133382611ce6565b610b9f576040517f08c379a000000000000000000000000000000000000000000000000000000000815260206004820152602d60248201527f4552433732313a2063616c6c6572206973206e6f7420746f6b656e206f776e6560448201527f72206f7220617070726f766564000000000000000000000000000000000000006064820152608401610859565b610595838383611da6565b606060008a8a8a8a8a8a8a8a8a604051602001610bcf999897969594939291906139ba565b604080518083037fffffffffffffffffffffffffffffffffffffffffffffffffffffffffffffffe00181529190529b9a5050505050505050505050565b6000610c17836112eb565b8210610ca5576040517f08c379a000000000000000000000000000000000000000000000000000000000815260206004820152602b60248201527f455243373231456e756d657261626c653a206f776e657220696e646578206f7560448201527f74206f6620626f756e64730000000000000000000000000000000000000000006064820152608401610859565b5073ffffffffffffffffffffffffffffffffffffffff919091166000908152600760209081526040808320938352929052205490565b610595838383604051806020016040528060008152506114ac565b6000610d0160095490565b8210610d8f576040517f08c379a000000000000000000000000000000000000000000000000000000000815260206004820152602c60248201527f455243373231456e756d657261626c653a20676c6f62616c20696e646578206f60448201527f7574206f6620626f756e647300000000000000000000000000000000000000006064820152608401610859565b60098281548110610da257610da2613a86565b90600052602060002001549050919050565b8051602081830181018051600e8252928201919093012091528054610dd8906137ab565b80601f0160208091040260200160405190810160405280929190818152602001828054610e04906137ab565b8015610e515780601f10610e2657610100808354040283529160200191610e51565b820191906000526020600020905b815481529060010190602001808311610e3457829003601f168201915b505050505081565b6040805160208101825260009052517fc5d2460186f7233c927e7db2dcc703c0e500b653ca82273b7bfad8045d85a47090600f90600e90610e9d90879087906137ff565b908152604051908190036020018120610eb59161389c565b908152604051908190036020018120610ecd9161389c565b60405180910390201415610f3d576040517f08c379a000000000000000000000000000000000000000000000000000000000815260206004820152601860248201527f636f6e7472616374206f6e2064657374206e6f742073657400000000000000006044820152606401610859565b33610f6b823560009081526002602052604090205473ffffffffffffffffffffffffffffffffffffffff1690565b73ffffffffffffffffffffffffffffffffffffffff1614610fe8576040517f08c379a000000000000000000000000000000000000000000000000000000000815260206004820152601760248201527f63616c6c6572206973206e6f7420746865206f776e65720000000000000000006044820152606401610859565b61100c60405180606001604052806000815260200160608152602001606081525090565b813581526040805174140000000000000000000000000000000000000000331860148201526034810190915260208201528051611048906120ae565b6000600e858560405161105c9291906137ff565b90815260200160405180910390208054611075906137ab565b80601f01602080910402602001604051908101604052809291908181526020018280546110a1906137ab565b80156110ee5780601f106110c3576101008083540402835291602001916110ee565b820191906000526020600020905b8154815290600101906020018083116110d157829003601f168201915b505050505090506000826040516020016111089190613ab5565b60405160208183030381529060405290506000600f8360405161112b91906138a8565b90815260200160405180910390208260405160200161114b929190613b1f565b604080517fffffffffffffffffffffffffffffffffffffffffffffffffffffffffffffffe0818403018152600d54602084018352600080855292517f7bed470a00000000000000000000000000000000000000000000000000000000815291945073ffffffffffffffffffffffffffffffffffffffff1692637bed470a9234926111df92600192918a908990600401613bcd565b6020604051808303818588803b1580156111f857600080fd5b505af115801561120c573d6000803e3d6000fd5b50505050506040513d601f19601f820116820180604052508101906112319190613c58565b5050505050505050565b60008181526002602052604081205473ffffffffffffffffffffffffffffffffffffffff16806106c8576040517f08c379a000000000000000000000000000000000000000000000000000000000815260206004820152601860248201527f4552433732313a20696e76616c696420746f6b656e20494400000000000000006044820152606401610859565b8051602081830181018051600f8252928201919093012091528054610dd8906137ab565b600073ffffffffffffffffffffffffffffffffffffffff8216611390576040517f08c379a000000000000000000000000000000000000000000000000000000000815260206004820152602960248201527f4552433732313a2061646472657373207a65726f206973206e6f74206120766160448201527f6c6964206f776e657200000000000000000000000000000000000000000000006064820152608401610859565b5073ffffffffffffffffffffffffffffffffffffffff1660009081526003602052604090205490565b600c8054610dd8906137ab565b600b5473ffffffffffffffffffffffffffffffffffffffff163314611447576040517f08c379a000000000000000000000000000000000000000000000000000000000815260206004820152600a60248201527f6f6e6c79206f776e6572000000000000000000000000000000000000000000006044820152606401610859565b600d80547fffffffffffffffffffffffff00000000000000000000000000000000000000001673ffffffffffffffffffffffffffffffffffffffff92909216919091179055565b6060600180546106dd906137ab565b6114a83383836120b7565b5050565b6114b63383611ce6565b611542576040517f08c379a000000000000000000000000000000000000000000000000000000000815260206004820152602d60248201527f4552433732313a2063616c6c6572206973206e6f7420746f6b656e206f776e6560448201527f72206f7220617070726f766564000000000000000000000000000000000000006064820152608401610859565b61154e848484846121e5565b50505050565b60606106c882612288565b6040517f6d756d62616900000000000000000000000000000000000000000000000000008152601090600601908152604051908190036020019020543373ffffffffffffffffffffffffffffffffffffffff909116148061164957506040517f66756a6900000000000000000000000000000000000000000000000000000000602082015260240160405160208183030381529060405280519060200120600c60405160200161160f919061389c565b604051602081830303815290604052805190602001201480156116495750600b5473ffffffffffffffffffffffffffffffffffffffff1633145b6116af576040517f08c379a000000000000000000000000000000000000000000000000000000000815260206004820152600b60248201527f6e6f7420616c6c6f7765640000000000000000000000000000000000000000006044820152606401610859565b6116b98383612391565b61059582826123ab565b600b5473ffffffffffffffffffffffffffffffffffffffff163314611744576040517f08c379a000000000000000000000000000000000000000000000000000000000815260206004820152600a60248201527f6f6e6c79206f776e6572000000000000000000000000000000000000000000006044820152606401610859565b6040517f66756a6900000000000000000000000000000000000000000000000000000000602082015260240160405160208183030381529060405280519060200120600c604051602001611798919061389c565b60405160208183030381529060405280519060200120146116af57600080fd5b600b5473ffffffffffffffffffffffffffffffffffffffff163314611839576040517f08c379a000000000000000000000000000000000000000000000000000000000815260206004820152600a60248201527f6f6e6c79206f776e6572000000000000000000000000000000000000000000006044820152606401610859565b600d546040517fef15cbda00000000000000000000000000000000000000000000000000000000815273ffffffffffffffffffffffffffffffffffffffff9091169063ef15cbda9061188f90849060040161315b565b602060405180830381600087803b1580156118a957600080fd5b505af11580156118bd573d6000803e3d6000fd5b505050506040513d601f19601f820116820180604052508101906114a89190613c58565b73ffffffffffffffffffffffffffffffffffffffff163b151590565b61190984848484611aa6565b600181111561199a576040517f08c379a000000000000000000000000000000000000000000000000000000000815260206004820152603560248201527f455243373231456e756d657261626c653a20636f6e736563757469766520747260448201527f616e7366657273206e6f7420737570706f7274656400000000000000000000006064820152608401610859565b8173ffffffffffffffffffffffffffffffffffffffff8516611a03576119fe81600980546000838152600a60205260408120829055600182018355919091527f6e1540171b6c0c960b71a7020d9f60077f6af931a8bbf590da0223dacf75c7af0155565b611a40565b8373ffffffffffffffffffffffffffffffffffffffff168573ffffffffffffffffffffffffffffffffffffffff1614611a4057611a40858261247b565b73ffffffffffffffffffffffffffffffffffffffff8416611a6957611a6481612532565b6109ea565b8473ffffffffffffffffffffffffffffffffffffffff168473ffffffffffffffffffffffffffffffffffffffff16146109ea576109ea84826125e1565b600181111561154e5773ffffffffffffffffffffffffffffffffffffffff841615611b065773ffffffffffffffffffffffffffffffffffffffff841660009081526003602052604081208054839290611b00908490613ca0565b90915550505b73ffffffffffffffffffffffffffffffffffffffff83161561154e5773ffffffffffffffffffffffffffffffffffffffff831660009081526003602052604081208054839290611b57908490613cb7565b909155505050505050565b60007fffffffff0000000000000000000000000000000000000000000000000000000082167f780e9d630000000000000000000000000000000000000000000000000000000014806106c857506106c882612632565b60008181526002602052604090205473ffffffffffffffffffffffffffffffffffffffff16611c43576040517f08c379a000000000000000000000000000000000000000000000000000000000815260206004820152601860248201527f4552433732313a20696e76616c696420746f6b656e20494400000000000000006044820152606401610859565b50565b600081815260046020526040902080547fffffffffffffffffffffffff00000000000000000000000000000000000000001673ffffffffffffffffffffffffffffffffffffffff84169081179091558190611ca08261123b565b73ffffffffffffffffffffffffffffffffffffffff167f8c5be1e5ebec7d5bd14f71427d1e84f3dd0314c0f7b2291e5b200ac8c7c3b92560405160405180910390a45050565b600080611cf28361123b565b90508073ffffffffffffffffffffffffffffffffffffffff168473ffffffffffffffffffffffffffffffffffffffff161480611d60575073ffffffffffffffffffffffffffffffffffffffff80821660009081526005602090815260408083209388168352929052205460ff165b80611d9e57508373ffffffffffffffffffffffffffffffffffffffff16611d8684610760565b73ffffffffffffffffffffffffffffffffffffffff16145b949350505050565b8273ffffffffffffffffffffffffffffffffffffffff16611dc68261123b565b73ffffffffffffffffffffffffffffffffffffffff1614611e69576040517f08c379a000000000000000000000000000000000000000000000000000000000815260206004820152602560248201527f4552433732313a207472616e736665722066726f6d20696e636f72726563742060448201527f6f776e65720000000000000000000000000000000000000000000000000000006064820152608401610859565b73ffffffffffffffffffffffffffffffffffffffff8216611f0b576040517f08c379a0000000000000000000000000000000000000000000000000000000008152602060048201526024808201527f4552433732313a207472616e7366657220746f20746865207a65726f2061646460448201527f72657373000000000000000000000000000000000000000000000000000000006064820152608401610859565b611f188383836001612715565b8273ffffffffffffffffffffffffffffffffffffffff16611f388261123b565b73ffffffffffffffffffffffffffffffffffffffff1614611fdb576040517f08c379a000000000000000000000000000000000000000000000000000000000815260206004820152602560248201527f4552433732313a207472616e736665722066726f6d20696e636f72726563742060448201527f6f776e65720000000000000000000000000000000000000000000000000000006064820152608401610859565b600081815260046020908152604080832080547fffffffffffffffffffffffff000000000000000000000000000000000000000090811690915573ffffffffffffffffffffffffffffffffffffffff8781168086526003855283862080547fffffffffffffffffffffffffffffffffffffffffffffffffffffffffffffffff01905590871680865283862080546001019055868652600290945282852080549092168417909155905184937fddf252ad1be2c89b69c2b068fc378daa952ba7f163c4a11628f55a4df523b3ef91a4505050565b611c4381612721565b8173ffffffffffffffffffffffffffffffffffffffff168373ffffffffffffffffffffffffffffffffffffffff16141561214d576040517f08c379a000000000000000000000000000000000000000000000000000000000815260206004820152601960248201527f4552433732313a20617070726f766520746f2063616c6c6572000000000000006044820152606401610859565b73ffffffffffffffffffffffffffffffffffffffff83811660008181526005602090815260408083209487168084529482529182902080547fffffffffffffffffffffffffffffffffffffffffffffffffffffffffffffff001686151590811790915591519182527f17307eab39ab6107e8899845ad3d59bd9653f200f220920489ca2b5937696c31910160405180910390a3505050565b6121f0848484611da6565b6121fc84848484612761565b61154e576040517f08c379a000000000000000000000000000000000000000000000000000000000815260206004820152603260248201527f4552433732313a207472616e7366657220746f206e6f6e20455243373231526560448201527f63656976657220696d706c656d656e74657200000000000000000000000000006064820152608401610859565b606061229382611bb8565b600082815260066020526040812080546122ac906137ab565b80601f01602080910402602001604051908101604052809291908181526020018280546122d8906137ab565b80156123255780601f106122fa57610100808354040283529160200191612325565b820191906000526020600020905b81548152906001019060200180831161230857829003601f168201915b50505050509050600061234360408051602081019091526000815290565b9050805160001415612356575092915050565b815115612388578082604051602001612370929190613ccf565b60405160208183030381529060405292505050919050565b611d9e84612960565b6114a88282604051806020016040528060008152506129d3565b60008281526002602052604090205473ffffffffffffffffffffffffffffffffffffffff1661245c576040517f08c379a000000000000000000000000000000000000000000000000000000000815260206004820152602e60248201527f45524337323155524953746f726167653a2055524920736574206f66206e6f6e60448201527f6578697374656e7420746f6b656e0000000000000000000000000000000000006064820152608401610859565b6000828152600660209081526040909120825161059592840190612fdb565b60006001612488846112eb565b6124929190613ca0565b6000838152600860205260409020549091508082146124f25773ffffffffffffffffffffffffffffffffffffffff841660009081526007602090815260408083208584528252808320548484528184208190558352600890915290208190555b50600091825260086020908152604080842084905573ffffffffffffffffffffffffffffffffffffffff9094168352600781528383209183525290812055565b60095460009061254490600190613ca0565b6000838152600a60205260408120546009805493945090928490811061256c5761256c613a86565b90600052602060002001549050806009838154811061258d5761258d613a86565b6000918252602080832090910192909255828152600a909152604080822084905585825281205560098054806125c5576125c5613cfe565b6001900381819060005260206000200160009055905550505050565b60006125ec836112eb565b73ffffffffffffffffffffffffffffffffffffffff9093166000908152600760209081526040808320868452825280832085905593825260089052919091209190915550565b60007fffffffff0000000000000000000000000000000000000000000000000000000082167f80ac58cd0000000000000000000000000000000000000000000000000000000014806126c557507fffffffff0000000000000000000000000000000000000000000000000000000082167f5b5e139f00000000000000000000000000000000000000000000000000000000145b806106c857507f01ffc9a7000000000000000000000000000000000000000000000000000000007fffffffff000000000000000000000000000000000000000000000000000000008316146106c8565b61154e848484846118fd565b61272a81612a76565b60008181526006602052604090208054612743906137ab565b159050611c43576000818152600660205260408120611c439161304f565b600073ffffffffffffffffffffffffffffffffffffffff84163b15612955576040517f150b7a0200000000000000000000000000000000000000000000000000000000815273ffffffffffffffffffffffffffffffffffffffff85169063150b7a02906127d8903390899088908890600401613d2d565b602060405180830381600087803b1580156127f257600080fd5b505af1925050508015612840575060408051601f3d9081017fffffffffffffffffffffffffffffffffffffffffffffffffffffffffffffffe016820190925261283d91810190613d76565b60015b61290a573d80801561286e576040519150601f19603f3d011682016040523d82523d6000602084013e612873565b606091505b508051612902576040517f08c379a000000000000000000000000000000000000000000000000000000000815260206004820152603260248201527f4552433732313a207472616e7366657220746f206e6f6e20455243373231526560448201527f63656976657220696d706c656d656e74657200000000000000000000000000006064820152608401610859565b805181602001fd5b7fffffffff00000000000000000000000000000000000000000000000000000000167f150b7a0200000000000000000000000000000000000000000000000000000000149050611d9e565b506001949350505050565b606061296b82611bb8565b600061298260408051602081019091526000815290565b905060008151116129a25760405180602001604052806000815250610b02565b806129ac84612b5c565b6040516020016129bd929190613ccf565b6040516020818303038152906040529392505050565b6129dd8383612c24565b6129ea6000848484612761565b610595576040517f08c379a000000000000000000000000000000000000000000000000000000000815260206004820152603260248201527f4552433732313a207472616e7366657220746f206e6f6e20455243373231526560448201527f63656976657220696d706c656d656e74657200000000000000000000000000006064820152608401610859565b6000612a818261123b565b9050612a91816000846001612715565b612a9a8261123b565b600083815260046020908152604080832080547fffffffffffffffffffffffff000000000000000000000000000000000000000090811690915573ffffffffffffffffffffffffffffffffffffffff85168085526003845282852080547fffffffffffffffffffffffffffffffffffffffffffffffffffffffffffffffff0190558785526002909352818420805490911690555192935084927fddf252ad1be2c89b69c2b068fc378daa952ba7f163c4a11628f55a4df523b3ef908390a45050565b60606000612b6983612e57565b600101905060008167ffffffffffffffff811115612b8957612b8961328f565b6040519080825280601f01601f191660200182016040528015612bb3576020820181803683370190505b5090508181016020015b7fffffffffffffffffffffffffffffffffffffffffffffffffffffffffffffffff017f3031323334353637383961626364656600000000000000000000000000000000600a86061a8153600a8504945084612c1757612c1c565b612bbd565b509392505050565b73ffffffffffffffffffffffffffffffffffffffff8216612ca1576040517f08c379a000000000000000000000000000000000000000000000000000000000815260206004820181905260248201527f4552433732313a206d696e7420746f20746865207a65726f20616464726573736044820152606401610859565b60008181526002602052604090205473ffffffffffffffffffffffffffffffffffffffff1615612d2d576040517f08c379a000000000000000000000000000000000000000000000000000000000815260206004820152601c60248201527f4552433732313a20746f6b656e20616c7265616479206d696e746564000000006044820152606401610859565b612d3b600083836001612715565b60008181526002602052604090205473ffffffffffffffffffffffffffffffffffffffff1615612dc7576040517f08c379a000000000000000000000000000000000000000000000000000000000815260206004820152601c60248201527f4552433732313a20746f6b656e20616c7265616479206d696e746564000000006044820152606401610859565b73ffffffffffffffffffffffffffffffffffffffff8216600081815260036020908152604080832080546001019055848352600290915280822080547fffffffffffffffffffffffff0000000000000000000000000000000000000000168417905551839291907fddf252ad1be2c89b69c2b068fc378daa952ba7f163c4a11628f55a4df523b3ef908290a45050565b6000807a184f03e93ff9f4daa797ed6e38ed64bf6a1f0100000000000000008310612ea0577a184f03e93ff9f4daa797ed6e38ed64bf6a1f010000000000000000830492506040015b6d04ee2d6d415b85acef81000000008310612ecc576d04ee2d6d415b85acef8100000000830492506020015b662386f26fc100008310612eea57662386f26fc10000830492506010015b6305f5e1008310612f02576305f5e100830492506008015b6127108310612f1657612710830492506004015b60648310612f28576064830492506002015b600a83106106c85760010192915050565b828054612f45906137ab565b90600052602060002090601f016020900481019282612f675760008555612fcb565b82601f10612f9e578280017fffffffffffffffffffffffffffffffffffffffffffffffffffffffffffffff00823516178555612fcb565b82800160010185558215612fcb579182015b82811115612fcb578235825591602001919060010190612fb0565b50612fd7929150613085565b5090565b828054612fe7906137ab565b90600052602060002090601f0160209004810192826130095760008555612fcb565b82601f1061302257805160ff1916838001178555612fcb565b82800160010185558215612fcb579182015b82811115612fcb578251825591602001919060010190613034565b50805461305b906137ab565b6000825580601f1061306b575050565b601f016020900490600052602060002090810190611c4391905b5b80821115612fd75760008155600101613086565b7fffffffff0000000000000000000000000000000000000000000000000000000081168114611c4357600080fd5b6000602082840312156130da57600080fd5b8135610b028161309a565b60005b838110156131005781810151838201526020016130e8565b8381111561154e5750506000910152565b600081518084526131298160208601602086016130e5565b601f017fffffffffffffffffffffffffffffffffffffffffffffffffffffffffffffffe0169290920160200192915050565b602081526000610b026020830184613111565b60006020828403121561318057600080fd5b5035919050565b803573ffffffffffffffffffffffffffffffffffffffff811681146131ab57600080fd5b919050565b600080604083850312156131c357600080fd5b6131cc83613187565b946020939093013593505050565b60008083601f8401126131ec57600080fd5b50813567ffffffffffffffff81111561320457600080fd5b60208301915083602082850101111561321c57600080fd5b9250929050565b6000806000806040858703121561323957600080fd5b843567ffffffffffffffff8082111561325157600080fd5b61325d888389016131da565b9096509450602087013591508082111561327657600080fd5b50613283878288016131da565b95989497509550505050565b7f4e487b7100000000000000000000000000000000000000000000000000000000600052604160045260246000fd5b6040516060810167ffffffffffffffff811182821017156132e1576132e161328f565b60405290565b604051601f82017fffffffffffffffffffffffffffffffffffffffffffffffffffffffffffffffe016810167ffffffffffffffff8111828210171561332e5761332e61328f565b604052919050565b600067ffffffffffffffff8211156133505761335061328f565b50601f017fffffffffffffffffffffffffffffffffffffffffffffffffffffffffffffffe01660200190565b600082601f83011261338d57600080fd5b81356133a061339b82613336565b6132e7565b8181528460208386010111156133b557600080fd5b816020850160208301376000918101602001919091529392505050565b6000806000606084860312156133e757600080fd5b833567ffffffffffffffff808211156133ff57600080fd5b61340b8783880161337c565b9450602086013591508082111561342157600080fd5b61342d8783880161337c565b9350604086013591508082111561344357600080fd5b506134508682870161337c565b9150509250925092565b60008060006060848603121561346f57600080fd5b61347884613187565b925061348660208501613187565b9150604084013590509250925092565b803567ffffffffffffffff811681146131ab57600080fd5b803580151581146131ab57600080fd5b60008060008060008060008060006101008a8c0312156134dd57600080fd5b6134e68a613496565b98506134f460208b01613496565b975061350260408b01613496565b965061351060608b01613496565b955060808a01356fffffffffffffffffffffffffffffffff8116811461353557600080fd5b945060a08a013560ff8116811461354b57600080fd5b935061355960c08b016134ae565b925060e08a013567ffffffffffffffff81111561357557600080fd5b6135818c828d016131da565b915080935050809150509295985092959850929598565b6000602082840312156135aa57600080fd5b610b0282613187565b6000602082840312156135c557600080fd5b813567ffffffffffffffff8111156135dc57600080fd5b611d9e8482850161337c565b6000806000604084860312156135fd57600080fd5b833567ffffffffffffffff8082111561361557600080fd5b613621878388016131da565b9095509350602086013591508082111561363a57600080fd5b5084016040818703121561364d57600080fd5b809150509250925092565b6000806040838503121561366b57600080fd5b61367483613187565b9150613682602084016134ae565b90509250929050565b6000806000606084860312156136a057600080fd5b833592506136b0602085016134ae565b9150604084013567ffffffffffffffff8111156136cc57600080fd5b6134508682870161337c565b600080600080608085870312156136ee57600080fd5b6136f785613187565b935061370560208601613187565b925060408501359150606085013567ffffffffffffffff81111561372857600080fd5b6137348782880161337c565b91505092959194509250565b60008060006060848603121561375557600080fd5b61375e84613187565b925060208401359150604084013567ffffffffffffffff8111156136cc57600080fd5b6000806040838503121561379457600080fd5b61379d83613187565b915061368260208401613187565b600181811c908216806137bf57607f821691505b602082108114156137f9577f4e487b7100000000000000000000000000000000000000000000000000000000600052602260045260246000fd5b50919050565b8183823760009101908152919050565b6000815461381c816137ab565b60018281168015613834576001811461386357613892565b7fffffffffffffffffffffffffffffffffffffffffffffffffffffffffffffff00841687528287019450613892565b8560005260208060002060005b858110156138895781548a820152908401908201613870565b50505082870194505b5050505092915050565b6000610b02828461380f565b600082516138ba8184602087016130e5565b9190910192915050565b60006138d261339b84613336565b90508281528383830111156138e657600080fd5b610b028360208301846130e5565b60006020828403121561390657600080fd5b815167ffffffffffffffff8082111561391e57600080fd5b908301906060828603121561393257600080fd5b61393a6132be565b8251815260208301518281111561395057600080fd5b8301601f8101871361396157600080fd5b613970878251602084016138c4565b60208301525060408301518281111561398857600080fd5b80840193505085601f84011261399d57600080fd5b6139ac868451602086016138c4565b604082015295945050505050565b60007fffffffffffffffff000000000000000000000000000000000000000000000000808c60c01b168352808b60c01b166008840152808a60c01b166010840152808960c01b166018840152507fffffffffffffffffffffffffffffffff000000000000000000000000000000008760801b1660208301527fff000000000000000000000000000000000000000000000000000000000000008660f81b16603083015284151560f81b603183015282846032840137506000910160320190815298975050505050505050565b7f4e487b7100000000000000000000000000000000000000000000000000000000600052603260045260246000fd5b60208152815160208201526000602083015160606040840152613adb6080840182613111565b905060408401517fffffffffffffffffffffffffffffffffffffffffffffffffffffffffffffffe0848303016060850152613b168282613111565b95945050505050565b604081526000808454613b31816137ab565b8060408601526060600180841660008114613b535760018114613b8557613bb6565b7fffffffffffffffffffffffffffffffffffffffffffffffffffffffffffffff00851683890152608088019550613bb6565b8960005260208060002060005b86811015613bad5781548b8201870152908401908201613b92565b8a018501975050505b50505050508281036020840152613b168185613111565b85815284602082015260c060408201526000613bec60c0830186613111565b8281036060840152613bfe8186613111565b9050828103806080850152603282527a07a12000000006fc23ac00000000000000000000000000000000006020830152600060408301526060810160a085015250613c4c6060820185613111565b98975050505050505050565b600060208284031215613c6a57600080fd5b5051919050565b7f4e487b7100000000000000000000000000000000000000000000000000000000600052601160045260246000fd5b600082821015613cb257613cb2613c71565b500390565b60008219821115613cca57613cca613c71565b500190565b60008351613ce18184602088016130e5565b835190830190613cf58183602088016130e5565b01949350505050565b7f4e487b7100000000000000000000000000000000000000000000000000000000600052603160045260246000fd5b600073ffffffffffffffffffffffffffffffffffffffff808716835280861660208401525083604083015260806060830152613d6c6080830184613111565b9695505050505050565b600060208284031215613d8857600080fd5b8151610b028161309a56fea164736f6c6343000809000a4552433732313a207472616e7366657220746f206e6f6e204552433732315265726f757465723171713061633666337171636d7a726b3934707671683066336777726870616b7861773866796c3532703879766c7537633030667363786c713475",
  "linkReferences": {},
  "deployedLinkReferences": {}
}